S00C000064656D6F2E7372656373
S11300000C943E000C9453000C9453000C94530035
S11300100C9453000C9453000C9453000C94530010
S11300200C9453000C9453000C9453000C94530000
S11300300C9453000C9453000C9453000C945300F0
S11300400C9453000C9453000C9453000C945300E0
S11300500C9453000C9453000C9453000C945300D0
S11300600C9453000C9453000C9453000C945300C0
S11300700C9453000C9453000C94530011241FBE91
S1130080CFEFD0E1DEBFCDBF11E0A0E0B1E0E0EC06
S1130090F2E002C005900D92A433B107D9F70E9493
S11300A018010C945E010C940000000082B1806879
S11300B082B9000082B18F7782B900000895CF938E
S11300C0C82F82B18F7D82B988B19C2F907F8F70A9
S11300D0892B88B90E94550020E1C29FC0011124D8
S11300E098B19F70892B88B90E94550089EF90E0E0
S11300F00197F1F700C00000CF910895CF93C82F66
S1130100843E09F4C1EEC63F09F4CFEE82B18062A9
S113011082B988B19C2F907F8F70892B88B90E94F7
S1130120550020E1C29FC001112498B19F70892B12
S113013088B90E94550089EF90E00197F1F700C05B
S11301400000CF91089592B19F7D92B998B1807FBC
S11301509F70892B88B90E94550089EF90E0019720
S1130160F1F700C00000089582B18F7D82B982B199
S1130170806482B987B18F7087B987B1806F87B97E
S113018082B18F7B82B9089582B18F7D82B982B1A9
S11301908F7B82B982B18F7782B981B1806281B954
S11301A081B1806481B981B1806881B987B1806F80
S11301B087B987EA91E60197F1F700C0000080E271
S11301C00E94A30087E893E10197F1F700C00000C3
S11301D088E20E945F0083EC99E00197F1F700C088
S11301E0000088E20E945F000E94B4008FE00E9439
S11301F05F000E94B40081E00E945F000E94B4008E
S113020086E00E945F000E94B40083ED90E30197B2
S1130210F1F700C00000089592B19F7D92B992B1A8
S11302209F7B92B980580E945F000E94B400089599
S1130230CF93DF93CDB7DEB7E4970FB6F894DEBF64
S11302400FBECDBF0E94C40084E3E0E0F1E0DE0114
S1130250119601900D928A95E1F70F2EFFE1EF2E92
S1130260F12CF02D05C00F2EFFE1EF2EF12CF02D17
S113027000E010E00EC0F701E00FF11F81E090E014
S11302808C0F9D1FE80FF91F80810E947E000F5F75
S11302901F4F043111057CF39FE724E88EE1915050
S11302A020408040E1F700C0000080E090E00E9420
S11302B00C0191E0E91AF108B1F2DACFF894FFCF1A
S11302C0202020202020202020202020202020202A
S11302D02020202048656C6C6F20576F726C64205E
S11302E0202020202020202020202020202020200A
S10702F020202000A6
S9030000FC
