:100000000C943E000C9453000C9453000C94530039
:100010000C9453000C9453000C9453000C94530014
:100020000C9453000C9453000C9453000C94530004
:100030000C9453000C9453000C9453000C945300F4
:100040000C9453000C9453000C9453000C945300E4
:100050000C9453000C9453000C9453000C945300D4
:100060000C9453000C9453000C9453000C945300C4
:100070000C9453000C9453000C94530011241FBE95
:10008000CFEFD0E1DEBFCDBF11E0A0E0B1E0EEE008
:10009000F1E002C005900D92AC30B107D9F70E9493
:1000A00073000C9485000C9400009093C50080931D
:1000B000C40088E18093C10086E08093C200089567
:1000C0009091C00095FFFCCF8093C6000895CF9318
:1000D000DF93EC018991882319F00E946000FACF28
:1000E000DF91CF91089581E890E00E94550080E073
:1000F00091E00E9467002FE38DE093E02150804063
:0E0100009040E1F700C00000F2CFF894FFCF6E
:0C010E0048656C6C6F776F726C640A00BF
:00000001FF
